:020000040800F2
:10000000880E0020D5000008351C0008F9180008EB
:1000100000000000000000000000000000000000E0
:100020000000000000000000000000006D2000083B
:100030000000000000000000F91F00086F20000809
:100040000501000805010008050100080501000878
:100050000501000805010008050100080501000868
:100060000501000805010008050100080501000858
:100070000501000805010008050100080501000848
:100080000501000800000000000000000501000854
:100090000000000005010008050100080501000836
:1000A0000000000005010008050100080501000826
:1000B000050100080000000005010008A12D00084E
:1000C0000348854600F048F800480047E92D00083D
:1000D000880E00200C4880F308880C480168090E3F
:1000E0000B4A914205D10B480B4901600B480C4962
:1000F00001600C4880470C480047FEE7FEE7FEE73A
:10010000FEE7FEE7FEE70000880E00200400000086
:100110001F00000018100240010000000000014014
:1001200000000000E9200008C100000830B50B46BF
:10013000014600202022012409E00D46D5409D42C1
:1001400005D31D469540491B254695404019154647
:10015000521E002DF1DC30BD064C0125064E05E097
:10016000E36807CC2B430C3C98471034B442F7D3D8
:10017000FFF7AAFFB82F0008D82F000870B58C1819
:100180000578401C6B075B0F01D10378401C2A11D6
:1001900006D10278401C03E006780E70401C491C12
:1001A0005B1EF9D12B0705D40023521E0DD40B7012
:1001B000491CFAE70378401CCB1A921C03E01D7817
:1001C0000D70491C5B1C521EF9D5A142D8D30020EA
:1001D00070BD70B514460E46054608E028466D1CF5
:1001E000EDB200F007F8641E3070E4B2761C002C0B
:1001F000F4D170BD10B5044601F04DFC642001F04F
:1002000016FC01F08DFC2007000E01F010FC01F03F
:1002100087FC01F040FC652001F009FC01F080FC46
:10022000002001F0CDFB044601F057FC204610BD34
:1002300070B516460C46054606E02178284600F0C3
:1002400009F86D1CEDB2641C3046761EF6B200282B
:10025000F3D170BD70B50D46044601F01CFC64205E
:1002600001F0E5FB01F05CFC2007000E01F0DFFB74
:1002700001F056FC284601F0DAFB01F051FC01F0D8
:100280002CFC042000F071F870BD000010B513487C
:10029000002181732022C273114A537903701379AC
:1002A0004370D37883700423C370937803715378B9
:1002B000437112788271C171017241728172C1728F
:1002C00001734173102205490020FFF7B1FF0F2091
:1002D000FFF790FFC006F5D410BD0000760A00209D
:1002E00064000020002070470020704710B50022F5
:1002F0000449054802F00FF80449034802F001F8E8
:10030000002010BD6000002040080020640A00208A
:1003100010B50449044801F0F4FF034801F0CBFF95
:10032000002010BD640A0020400800200A4610B5D5
:1003300008498969FF31FF3102314969002901D03B
:10034000012010BD0146044801F0E5FF024802F01B
:1003500027F810BD400A002040080020002100E0DE
:10036000491C8142FCD37047FEE731B500F0B2F87A
:10037000044600F0AFF80099001B8842F9D338BD5D
:10038000F8B5002389E001249C402A46A446224077
:100390007ED04C68022C01D0122C0CD1DC08A400B9
:1003A00027183C6A5D07ED0E0F26AE40B4430E6978
:1003B000AE4026433E6205685E000324B4400F79D8
:1003C000A543BF07BF0FB7402F4307604D68012DFE
:1003D00005D0022D03D0112D01D0122D0ED185682C
:1003E000CF68A543B7402F43876047686546AF4352
:1003F0000D79ED06ED0F9D403D434560C568A54371
:100400008C68B4402C43C4604C68E40044D5264C4E
:10041000A56901263543A561A4699D08344000946F
:10042000224CAD002F19BC689D072E0F0F25B5403B
:10043000AC430925ED06A84201D100250AE01C4D78
:10044000A84201D1012505E01A4DA84201D102259B
:1004500000E00525B5402543BD60174C25684E6872
:100460009543F60300D51543256065684E689543AE
:10047000B60300D515436560A5684E689543F6023E
:1004800000D51543A560E5684E689543B60200E0C7
:1004900002E000D51543E5605B1C0A681546DA40AA
:1004A00000D070E7F8BD00000010024000000140DD
:1004B00000040048000800480004014000690840AA
:1004C00000D001207047002A01D08161704781620D
:1004D0007047000001480068704700006C00002071
:1004E00002480168491C0160704700006C00002050
:1004F00010B506480168102211430160002000F089
:1005000007F800F017F8002010BD0000002002409E
:1005100010B5044600F012FF7D21C900FFF706FE6A
:1005200001F0CEF900222146501E00F029F80020EB
:1005300010BD000008B50C4881690122114381619A
:1005400080691040002200901146501F00F018F8FA
:1005500000221146901E00F013F800221146501E92
:1005600000F00EF808BD000000100240C106C90EE0
:1005700001208840014908607047000000E100E068
:1005800010B501F059FB10BD10B50C0606D5490693
:10059000490E1C2461430818283004E01C246143E0
:1005A0000818FF30093099B2002A06D00122827261
:1005B000C180190C0181002010BD0022827281804F
:1005C000F9E71C224A43121810B5FF30FF30023001
:1005D000926BC06902F091F810BD1C224A431218B8
:1005E00010B5FF30FF32FF30013202309269C0692E
:1005F00002F0DEF810BD0000F0B54A06520E1346B8
:100600001C256A43CC091218002C01D0283201E0C5
:10061000FF32093204461370C909FF345170E134C6
:10062000217A01293DD001212172957A494B002D73
:100630004949557837D0002D05681678AC465BD00F
:10064000B600AD5B6F0404D5444F0D403D43674693
:10065000BD5305681678AC46B600AD5B6F0605D590
:100660003C4F0D4040373D436746BD531578066803
:10067000AF00F55B0D4039490D43F553364F117806
:1006800030373D40066889001D4375521178334A62
:1006900000688900F13A15401D4345520020207240
:1006A000F0BD0220F0BD002D05681678AC4610D0D4
:1006B000B600AD5B6F0605D50D40264940310D43B0
:1006C00061468D5305681078234A8100685A30329C
:1006D0000EE0B600AD5B6F0404D50D401F490D431D
:1006E00061468D53056810781C4A8100685AF13ABA
:1006F000104018436852D1E7B600AD5B6F0404D5D3
:10070000164F0D403D436746BD5305681678AC460D
:10071000B600AD5B6F0605D50E4F0D4040373D432B
:100720006746BD5315780768AE00BD5B0D400949AB
:1007300040310D43BD53094F1678F13F3D400168EC
:10074000B6001D438D531178034A8900006830328A
:10075000A1E70000808000008F8F000080C00000B3
:10076000F0B54B06CA095B0E002A04D01C225A437E
:100770001218283204E01C224A431218FF320932B0
:100780000024947013700346C909FF335170E1339C
:10079000197A01291AD00121197251781A4C0029AD
:1007A0001178066814D08D00715B4F0603D5214087
:1007B000164C21437153117800688A00124C815AFB
:1007C0003034214010246140202414E00220F0BD88
:1007D0008D00715B4F0403D521400D4C21437153B3
:1007E000117800688A000A4C815AF13C21400124AA
:1007F0002403614064006140044C403C2143815229
:1008000000201872F0BD00008F8F0000C080000033
:1008100080C000004906490E1C2251430818FF30D1
:100820000130008C80B27047F0B54D066D0E2E463B
:100830001C246543CF092C18002F01D0283401E077
:10084000FF3409342670C90961700146FF31E26046
:10085000E131E3708C46097A01290DD0012261460D
:100860000A72E2789349002A08D0012A20D0022A8D
:100870000DD0032A25D111E00220F0BD23780268B3
:100880009B00D55A0D40FF35FF35023504E0237833
:1008900002689B00D55A0D40D55212E022780368B9
:1008A00092009D5A0D40032149026918995208E0AF
:1008B000237802689B00D55A0D40012189026918EE
:1008C000D15226780768B5007B5B7B497B4A0B4099
:1008D000134333437B53A57A002D53D02578784EAC
:1008E0000B400768AD0033437B53E38850265D0817
:1008F00003686D00F65AF6182378DF0001239B0287
:10090000FB18F552238950265D0803686D00F65ADE
:10091000F6182378DF005311FB18F5526378076847
:10092000002B237875D09D007B5B5E0403D5654E5C
:100930000B4033437B53237807689D007B5B5E0647
:1009400004D55E4E0B40403633437B532378056815
:100950009E00AB5B0B405B490B43AB53564E21787B
:10096000303633400568890013436B522178554C6B
:1009700000688900F13C2340134343520020614644
:100980000872F0BD6378002BA3881FD05D08036850
:100990005026F65A6D00F6182378DF0001239B02DB
:1009A000FB18F552237807689D007B5B5E0604D533
:1009B0000B40424940310B437B53016820783E4C49
:1009C0008300C85A30342040202440E05D0803688A
:1009D0005026F65A6D00F6182378DF003A4BFB18C4
:1009E000F55203685025ED5A374EEB182578B61CA2
:1009F000ED00AD195E19E3683E2B0BD9DD022D0C1D
:100A0000DB0601D16D1EADB2AB020125ED032B4318
:100A100007E020E0DD032D0CDB0701D06D1CADB23B
:100A2000AB023380237807689D007B5B5E0403D5AF
:100A30000B4024490B437B5301682078214C8300F1
:100A4000C85AF13C20400124240360406400604007
:100A50001043C85292E79D007B5B5E0403D5194E9C
:100A60000B4033437B53237807689D007B5B5E0616
:100A700004D5124E0B40403633437B532378056830
:100A80009E00AB5B0B400D4940310B43AB530D4E09
:100A90002178F13E334001263603734076007340DF
:100AA0000568890013436B522178034C8900006864
:100AB000303460E78F8900008F8F00008080000055
:100AC0008081000080C0000004040000F0B54906E9
:100AD000490E1C244C432418FF34093463612261FD
:100AE0000022A26103466270FF332170E133197A5C
:100AF000012908D0012119726569E1688D4204D984
:100B00006D1A656103E00220F0BD29466261A57A95
:100B1000002D05D06578002D19D0012D37D059E072
:100B200005685026765B76192578EF00324D7D19E1
:100B300076193E293ED9CD022D0CC90637D0A9021F
:100B40000125ED03294300E0A902318042E0056858
:100B50005026765B76192578EF00274D2D1F7D19DD
:100B600076193E290AD9CD022D0CCF0601D16D1E72
:100B7000ADB2AD020127FF033D4306E0CD032D0CCE
:100B8000CF0701D06D1CADB2AD02358009E005681C
:100B90005026765B76192578EF00174D2D1F7D19AD
:100BA00071536578002DBBD0012D0AD012E06D1E67
:100BB000ADB2C4E7CD032D0CC907C5D06D1CADB2D5
:100BC000C2E705685026765B76192578EF000A4D56
:100BD0007D197153217800688C00015B074D294015
:100BE00001252D0369406D006940054D29430153DE
:100BF0001A720020F0BD0000060400008FBF000044
:100C000080800000F0B50246FF32E132137A012BFA
:100C10000BD001244F06CB097F0E1472002B06D097
:100C20001C237B431B18283306E00220F0BD1C2345
:100C30004B431B18FF3309339C701F70CE095E7045
:100C4000012424031025114B002F0BD04906C90D98
:100C5000002E10D004680E4E605A30406840184391
:100C6000605210E001680B4E0888304060406840D8
:100C70001843088007E00568064E685A303E304049
:100C800060401843685200201072F0BD8080000060
:100C9000BF8F0000BFBF0000F0B506464806400EFB
:100CA0001C2141438D19EB630021AA6329640121B2
:100CB000283537466970FF372870E137387A0128C0
:100CC00006D03972EC686869A04203D9001B03E0C2
:100CD0000220F0BD044600206861A87A00280CD0EC
:100CE000297830688A00825C52066A783AD54B4B84
:100CF000002A13D0012A2DD032E0A3B2AA88296994
:100D0000306801F066F930685021095A09182878CE
:100D1000C2004248001F10180C526CE05022125AB8
:100D2000C9001018C91841183E2C0AD9E002000C5D
:100D3000E20601D1401E80B280020122D20310439C
:100D400006E0E003000CE20701D0401C80B2800204
:100D5000088005E05022125AC9001018C9184452E0
:100D60002A892BE0002A02D0012A1ED025E0502239
:100D7000125AC90012182948001F081811183E2CD1
:100D80000AD9E002000CE20601D1401E80B28002C6
:100D90000122D203104306E0E003000CE20701D079
:100DA000401C80B28002088007E05022125A1018BE
:100DB000CA001A49091F51184452EA88A3B2296986
:100DC000306801F006F969781548002902D0012938
:100DD00009D010E0297832688900535A034011483D
:100DE0000343535207E02978336889005A5A024076
:100DF0000D4802435A52287831688200084B885ABD
:100E0000303318401023584020235840054B403BB6
:100E10001843885200203872F0BD0000060400001C
:100E20008F8F0000C080000080C0000070B50446B5
:100E3000006840308088C00B02D0204600F01EFFC2
:100E400020684030818849050AD58188334A11409D
:100E50008180204600F0DAF80021204600F000F9F9
:100E6000206840308188490403D581882C4A11408C
:100E70008180206840308188890403D58188294A8F
:100E8000114081802068403081880425C9040029F0
:100E900010DA0188A9430180BD2021680002403199
:100EA0000880204600F0BEF82068403081881E4A45
:100EB00011408180206840308188090517D58188DC
:100EC0001A4A11408180206840300188082211436D
:100ED000018020684030018829430180206840302B
:100EE0008088C043C00402D5204600F0E3F82068A3
:100EF00040308188890506D581880D4A114081805E
:100F0000204600F0A5F8206840308188C90503D547
:100F10008188084A1140818070BD0000FFFB0000FD
:100F2000FFBF0000FFDF0000FFEF0000FFF7000041
:100F3000FFFD0000FFFE0000F8B500270446002872
:100F400007D02646FF36E136707A0025002802D009
:100F500005E00120F8BD3572204600F03BF8032083
:100F6000707201210BE01C207843021910462030DA
:100F700041720772C572556395637F1CD5636068C3
:100F8000B842F0D800200BE01C2242431219FF3275
:100F9000013255721072D57255619561401CD56150
:100FA00062688242F0D8206840300180206840307A
:100FB0000580206840308580206840300582BF2051
:100FC00022680002403210802034257171720020A6
:100FD000F8BD000008B500680A49884210D10A48E7
:100FE000C2690121C9050A43C261C06900220840E3
:100FF000009011461F20FFF7C3FA1F20FFF7B6FA33
:1010000008BD0000005C00400010024010B5C41D87
:10101000FF34FA340121E06901F0C3FCE06901F01A
:1010200088FC10BD10B504468069002806D007482A
:10103000016906229143016101F01FF8FF34FF347A
:101040000234E06901F098FC10BD000000ED00E002
:10105000FF3010B5FF300230C06901F093FC10BDC5
:101060000246FF32E132137A012B08D001231372BA
:10107000002906D020300171002010727047022034
:1010800070470068802140308181F5E710B58721E5
:1010900089000A580146FF31ED31104601F097FCF6
:1010A00010BD00684030018B0122D203114301833F
:1010B0000020704710B50446FF30FF300230C06991
:1010C00001F0DAFCA069002804D003480169062277
:1010D0001143016110BD000000ED00E0F8B50446C9
:1010E00000683E4DC00352D5E8690026C00007D411
:1010F000E96928040143E961E96901400126009199
:1011000037480168C90510D4016882151143016090
:10111000FFF7E0F9074604E0FFF7DCF9C01B64289D
:1011200024D82F480068C005F6D5286A03273F0257
:10113000384020D06168394081421CD0286A2A6A30
:10114000B843012109040A432A622A6A8A432A62AF
:101150002862C0070FD0FFF7BDF9009008E0FFF745
:10116000B9F90099411A1F48814201D90320F8BDFD
:10117000286A8007F3D5286A6168B8430843286263
:10118000002E04D0E969012000078143E96120783D
:10119000C00705D0286BA168800880000843286339
:1011A0002078800605D5286B10218843E168084324
:1011B00028632068800305D5286B802188436169F6
:1011C000084328632088400505D5286B40218843C3
:1011D0002169084328630020F8BD00000010024088
:1011E0000070004088130000F8B505464E480E46D2
:1011F0000068C007C00FB0420AD24B4801684908D6
:101200004900314301600068C007C00FB04270D18F
:101210002878464C800705D56068F0218843A96886
:10122000084360602878C00753D06868012817D049
:10123000022818D0032819D021688907002958DA14
:1012400061688908890001436160FFF743F96968B3
:101250000746012913D002291DD0032927D034E0E5
:1012600021688903EAE721688901E7E7616BC9031F
:10127000E4E7FFF72FF9C11B2D48814223D86068AE
:101280000007800F0128F4D123E0FFF723F9C11BE9
:101290002748814217D860680007800F0228F4D1E0
:1012A00017E0FFF717F9C11B214881420BD860688E
:1012B0000007800F0328F4D10BE0FFF70BF9C11BE7
:1012C0001B48814201D90320F8BD60680007800FE8
:1012D000F3D115480168C907C90FB1420BD901689C
:1012E00049084900314301600068C007C00FB0429F
:1012F00001D00120F8BD2878400706D56068072195
:1013000009028843E9680843606000F01DF86168DD
:10131000084A0906090F515CC840074908600020C7
:10132000FFF7F6F80020F8BD002002400010024050
:1013300088130000A82F00088801002001480068D9
:10134000704700008801002030B516A30FCB89B08C
:101350006C460FC417A30FCB0FC41A494A680C2060
:10136000144604401848042C05D0184B082C04D00F
:101370000C2C00D1184609B030BD9402240F6D46E4
:101380002C5DC96A04AD0907090FD203695C920F8D
:10139000022A02D0032A00D11846FEF7C7FE604396
:1013A000E9E7000002030405060708090A0B0C0D13
:1013B0000E0F10100102030405060708090A0B0CA2
:1013C0000D0E0F100010024000127A00006CDC02BB
:1013D000FEB504460078F04EF04DC00748D068686E
:1013E0000007800F01281FD068680007800F0228BF
:1013F00004D16868C003800F022815D061680129F4
:1014000019D001208004002901D0052917D02968AE
:10141000B1432960296881432960606800281BD096
:10142000FFF758F8074613E02868800320D5606866
:10143000002876D01CE0286830432860EDE7296852
:1014400001432960F7E7FFF745F8C01B642869D816
:1014500028688003F7D50BE0FFF73CF8074604E067
:10146000FFF738F8C01B6428F1D828688003F7D448
:10147000207880073ED568680007800F14D0686820
:101480000007800F022804D16868C003800F01287C
:101490000AD0E068002828681DD001210843286090
:1014A000FFF718F807460BE0286880070BD5E068BF
:1014B000012836D107E0FFF70DF8C01B0228C6D877
:1014C00028688007F7D52868F82188432169C90072
:1014D000084328600EE0400840002860FEF7FAFF4D
:1014E000074604E0FEF7F6FFC01B0228AFD82868C5
:1014F0008007F7D42078000724D5E0690028686ABF
:1015000011D0012108436862FEF7E4FF074604E0BA
:10151000FEF7E0FFC01B022899D8686A8007F7D55C
:1015200010E036E1D1E0400840006862FEF7D2FFEB
:10153000074604E0FEF7CEFFC01B022887D8686A82
:101540008007F7D4207804274007002861DA0020BC
:101550000190E869C00008D4E969B8060143E9616F
:10156000E96901400120009101908D480168C90599
:1015700011D40168821511430160FEF7ABFF0090A2
:1015800005E0FEF7A7FF0099401A642897D8844821
:101590000068C005F5D5A06801280AD0002801D050
:1015A000052811D0286A400840002862286AB843FC
:1015B00002E0286A012108432862A068002812D0AE
:1015C000FEF788FF00900AE0286A38432862F0E7B7
:1015D000FEF780FF0099411A7248814275D8286A47
:1015E0008007F5D50DE0FEF775FF009006E0FEF7E9
:1015F00071FF0099411A6B48814266D8286A8007BA
:10160000F5D40198002804D0E9690120000781433E
:10161000E9612078C00635D5606901280CD0401DED
:10162000686B24D038436863686B40084000686387
:10163000FEF750FF074622E0686B38436863686B2B
:10164000012108436863FEF745FF074604E0FEF703
:1016500041FFC01B022838D8686B8007F7D5686B3C
:10166000F8218843A169C900084368630AE0B843C8
:101670006863F4E7FEF72EFFC01B022825D8686BCD
:101680008007F7D42078800637D568680007800F78
:10169000032813D068680007800F022804D1686807
:1016A000C003800F032809D0206A0028686B16D079
:1016B00030436863FEF70EFF06460CE0686BC0031C
:1016C0001BD5206A012864D117E05BE0FEF702FF1A
:1016D000801B022856D8686BC003F7D50DE0B043D5
:1016E0006863FEF7F7FE064604E0FEF7F3FE801B94
:1016F000022847D8686BC003F7D4606A002846D038
:1017000069680907890F022943D001263606022895
:10171000286805D0B0432860FEF7DCFE044633E0BD
:10172000B0432860FEF7D6FE074604E0FEF7D2FE7F
:10173000C01B022826D828688001F7D4E86A216BEC
:10174000000900010843E862A16AE06A0843696889
:101750007B22D203914308436860286830432860A5
:10176000FEF7B8FE044604E0FEF7B4FE001B0228B4
:1017700008D828688001F7D509E0FEF7ABFE001B0A
:10178000022801D90320FEBD28688001F5D400207D
:10179000FEBD0120FEBD000000000100001002405F
:1017A0000070004088130000F8B5040007D0002640
:1017B00025464035A662687F002802D005E001205A
:1017C000F8BD2E77204600F04BF802236B77206897
:1017D00001684022914301600721E06809028842C4
:1017E00001D9002201E0012212030F273F02B84273
:1017F00002D0884200D0A662276B002F05D1884214
:1018000001D9236301E001202063A1686068636956
:1018100008432169194308430123A1695B02194068
:101820000843E1690843216A0843A16A0843216823
:101830000860616B606AA36908431B0C0427E168B8
:101840003B40194308432168104348602068C16940
:101850007A029143C1612666012068770020F8BDB5
:1018600000B500680D4987B0884215D10C488269DF
:1018700081140A438261806908400590E02000904D
:10188000022001900021032003900291049109207D
:101890006946C006FEF774FD07B000BD0030014088
:1018A00000100240042204490428086902D0904331
:1018B000086170471043FBE700E000E0704700005C
:1018C000094910B5401E884201D9012010BD074CBE
:1018D00060610321081F00F0AFF90020A06107201C
:1018E0002061002010BD0000FFFFFF0000E000E0CD
:1018F00010B5FFF7E3FF10BDFEE770B5FF24092523
:101900000134ED06002221462846FEF7DCFD00F0FA
:1019100091FB002261002846FEF7D5FDFF20FEF76F
:101920001DFD012221462846FEF7CDFDFF20FEF7D2
:1019300015FD002221462846FEF7C5FD70BD0000BA
:1019400000B50D4887B04269012149040A4342614C
:10195000406908400590032000020090112001908A
:10196000002002900320039009206946C006FEF77C
:1019700007FD07B000BD00000010024070B5FF2455
:1019800009250134ED06002221462846FEF79BFD7D
:1019900000F050FB012251022846FEF794FDFF2083
:1019A000FEF7DCFC012221462846FEF78CFDFF20D5
:1019B000FEF7D4FC002221462846FEF784FD70BDC8
:1019C000F1B5002400F01AFBFF2600250136092797
:1019D000FF06002231463846FEF775FDFF20FEF770
:1019E000BDFC012231463846FEF76DFDFF20FEF7B3
:1019F000B5FC6006040E012149023846FEF75EFD83
:101A0000002801D0641CE4B26D1CEDB2082DE0D3B7
:101A1000002231463846FEF756FD0098002803D0D4
:101A2000FFF76BFF2046F8BDFFF7A8FFFAE7F8B510
:101A3000054600F0FFFAFF2609270136FF060022BF
:101A400031463846FEF73FFD002400223146384635
:101A5000FEF739FDE80901D0012200E00022012152
:101A600049023846FEF72FFD6806050EFF20FEF7F7
:101A700075FC012231463846FEF725FDFF20FEF7B2
:101A80006DFC641CE4B2082CDFD3002231463846DA
:101A9000FEF719FDF8BD70B500F0CCFA012209255A
:101AA0005402ED0621462846FEF70DFD01221602DE
:101AB00031462846FEF707FDFF20FEF74FFC0022C7
:101AC00021462846FEF7FFFCFF20FEF747FC0022D8
:101AD00031462846FEF7F7FC70BD70B500F0AAFA53
:101AE000FF2409250134ED06002221462846FEF791
:101AF000EAFC6600002231462846FEF7E4FCFF209F
:101B0000FEF72CFC012221462846FEF7DCFCFF20D4
:101B1000FEF724FC012231462846FEF7D4FC70BDB6
:101B2000F8B5002400F06AFA012209255602ED06F4
:101B300031462846FEF7C7FCFF20FEF70FFC0122C6
:101B4000170239462846FEF7BEFCFF20FEF706FCCA
:101B500007E0641CE4B2FA2C03D9FFF7BEFF0120B2
:101B6000F8BD31462846FEF7A9FC0028F1D1002235
:101B700039462846FEF7A7FC0020F8BD10B51048EE
:101B80000E490160FF21053141600021032281607F
:101B900012020161C260012241615202826101624E
:101BA0004162082281620723C261C362426301630A
:101BB000FFF7FAFD002800D0FEE710BD003001401D
:101BC000DC05002010B500220749084800F056FD4A
:101BD0000749064800F07FFF0649044800F087FBEC
:101BE000024800F0C9FF10BD1C0000204008002082
:101BF000500100205000002000B50C4887B0426919
:101C0000012189040A43426140690840059080200F
:101C1000009000200190012002900320039069466B
:101C20000348FEF7ADFB07B000BD00000010024006
:101C300000040048704700008307FF22DB0E9A4033
:101C40008907090E994000280BDA0007000F0838B1
:101C5000830808489B001818C36993430B43C3616A
:101C60007047830804489B001B181868904308437A
:101C70001860704700ED00E000E400E0F0B585B0CA
:101C800004460020694688802646203678E19A89F5
:101C900017073F0F26D0B9000291425A9A809988BF
:101CA00009047DD5BE490A400299425238461C219A
:101CB00048430519FF350935A87A0028206870D0F7
:101CC00029788A00825A52046CD55022125ACB00CD
:101CD000B44912185918515A8905890D00917DD0BF
:101CE000EA88BDE09A89D20627D40188AE4A254603
:101CF0001140018020685021095A28350818297898
:101D0000CA00A8495118405A8005800D2064A16B73
:101D10000818A06300212046FEF753FC3079002804
:101D2000B4D068690028B1D1307980210843216896
:101D3000403188810020307122E12546FF3502883C
:101D400009359A809B881B0519D5098A09182878B6
:101D5000C2009448001D1018085A294683059B0D9F
:101D6000AB61AA88E431206800F024F920688C4A2D
:101D70000188114001802046FFF788F900E169469B
:101D800089880904D8D58649864F0A400280206890
:101D90005021095A3F1D09182878C000C01902E0D7
:101DA00085E03DE04FE0085A83059B0DAB6108D00C
:101DB000AA882969206800F0FDF8A96928694018F7
:101DC000286100212046FEF708FC206801464030CB
:101DD000008A4018C119E8683E2800E044E00AD9AA
:101DE000C202120CC00601D1521E92B29002012210
:101DF000D203104306E0C203120CC00701D0521CEC
:101E000092B2900208802168684A08881040012236
:101E10001203504052005040654A10430880AFE022
:101E20005021095A0A182978CB005E49091D591812
:101E3000515A8905890D009121D0AA882969009BF2
:101E400000F0B8F81BE05022CB00125A5549121886
:101E5000091D5918515A8905890D009104D02A8904
:101E60002969009B00F0A6F8297820688A004E4B6B
:101E7000815A803319404E4B403319438152A9692E
:101E800000980818A861296900980A182A616B69E6
:101E9000002B03D0E9680098814204D929782046B4
:101EA000FEF79BFB03E029782046FEF70FFE68460D
:101EB0008088000664D51C204743206802993A4A6E
:101EC000415A3D191140029A28358152A87A0028BA
:101ED000206811D029788A00825C52061ED55022D3
:101EE000125AC90012182F480818105A83059B0D62
:101EF000AB6124D0EA881EE05021095A09182878DD
:101F0000C20028481018085A83059B0DAB6121D0E8
:101F1000AA882969206800F05CF81BE05022125A58
:101F2000C90012181F48001D0818105A83059B0D80
:101F3000AB6104D02A892969206800F04AF8287822
:101F400022688000184B115A80331940174BF13327
:101F50001943115220685021095A09182878C200E3
:101F600010481018085A8005800DA86129690A18C0
:101F70002A616B692978002B20460DD0FEF78CFE74
:101F80002068014640318A886B469A81120400D548
:101F90007DE6002005B0F0BDFEF713FBF0E7000082
:101FA0008F0F0000020400000F8F00008FBF0000A1
:101FB00080800000101801225B1C92025B088018D0
:101FC000002B05D002880A80801C891C5B1EF9D179
:101FD0007047101801225B1C920210B55B08801834
:101FE000002B08D04A780C78120222430280801C11
:101FF000891C5B1EF6D110BD7047000000B50C486F
:1020000087B04269012149040A434261406908409E
:102010000590081200900020019002900320039088
:1020200009206946C006FEF7ABF907B000BD000005
:102030000010024000B50C4887B0426901214904F4
:102040000A4342614069084005900812009011203F
:102050000190002002900320039009206946C006E9
:10206000FEF78EF907B000BD00100240704710B5B2
:10207000FEF736FAFFF73CFC10BD10B598B02020F3
:10208000009001200024089009946846FFF7A0F909
:10209000002800D0FEE707200D9003200E900F943B
:1020A000012110940DA8FFF79FF8002800D0FEE74B
:1020B000012040041694119011A8FFF70FF8002892
:1020C00000D0FEE7FFF73AF97D21C900FEF72EF8B0
:1020D000FFF7F6FB0420FFF7E5FB00221146501E38
:1020E000FEF74EFA18B010BD1348016801221143E3
:1020F00001604168114A114041600168104A114075
:1021000001600168012292049143016041683F220D
:10211000120491434160C16A09090901C162016B5E
:10212000FF22D43291430163416B49084900416366
:102130000021816070470000001002400CB8FF08C9
:10214000FFFFF6FEFF30FF3002308069002806D026
:10215000FF300021FF300230416108467047022005
:10216000704770B5C21DFF32FA321546946900F00F
:1021700059FBE11DFF31FA31C860A869002808D079
:102180004868E969CA68832189006118904700207E
:1021900070BD022070BD70B504460025812100F09D
:1021A00099FA0121204600F095FA8221204600F09C
:1021B00091FAFF34FF340234A069002807D0E069A7
:1021C00040688047A06900F0E5FD0020A061284636
:1021D00070BDFF3010B5FF301A300AC8002B0AD08E
:1021E000CC1DFF34FA342078FF2804D09B68627835
:1021F0009847FF202070002010BD00000A210180B8
:102200000048704778000020432101800048704753
:10221000C80000204321018000487047840000204E
:1022200043210180004870470C010020F8B50446A6
:10223000007C012600257602002830D040230222AF
:102240008121204600F04CFB402302220121204640
:1022500000F046FB082303228221204600F040FBC9
:102260008720800000F098FDE11DFF31FA31886180
:1022700000281CD00746C86900688047FF37002047
:10228000FF3702377861B861207C7A68002810D067
:1022900040230121204600F039FB2846F8BD334693
:1022A00002228121204600F01BFB3346CDE70125A9
:1022B000F3E73346EDE710B54321C900095800297B
:1022C00013D0027C002A09D0FF31FF3102314A6865
:1022D0004023012100F01AFB002010BDFF31FF3127
:1022E000023101235B024A68F3E7022010BD024677
:1022F0000220002904D0FF32FF3202320020D161D7
:102300007047FF30FF3002308069FF30FF3002300D
:10231000416000207047FF30FF3002308069FF309D
:10232000FF300230026181600020704770B50C46BA
:10233000C11D0546FF31FA31207860228E690240C6
:1023400022D0202A28D1E288002A16D0000607D5FC
:10235000C96960788B6831469847E288314618E051
:10236000F01DFF306178FA300170A1794170E28888
:102370003146284600F050F80EE0C96960788B6855
:1023800000222146984707E060780A2804D10349D3
:102390000122284600F05CF8002070BD7400002087
:1023A00010B54321C9000958002911D0FF31FF3170
:1023B00002314A69002A01D0012010BD01224A6180
:1023C0000A8A93B28A68812100F05EFB002010BD6A
:1023D000022010BD10B58522920012585268904715
:1023E000002010BD134610B50A46002100F08EFAF9
:1023F000002010BD134610B50A46002100F044FB32
:10240000002010BD10B50446802100F00FFB002114
:10241000204600F00BFB10BD10B5FF230324F5335D
:102420001C50C31DF9339A60DA6013460A46002136
:1024300000F06CFA002010BD10B5FF210522F53127
:102440000A5000231A46194600F060FA002010BD19
:1024500010B5FF230224F5331C5082611346C2617C
:102460000A46002100F010FB002010BD10B5FF212E
:102470000422F5310A5000231A46194600F004FBE5
:10248000002010BD10B50A46024903A000F0D4F8A0
:10249000004810BD4006002043444320436F6E6651
:1024A0006967000012200880004870473C00002047
:1024B00010B50A46024903A000F0BEF8004810BD5E
:1024C0004006002043444320496E74657266616390
:1024D0006500000004200880004870473800002094
:1024E00010B50A46024903A000F0A6F8004810BD46
:1024F0004006002053544D6963726F656C656374C8
:10250000726F6E696373000010B50A46024903A03A
:1025100000F092F8004810BD4006002053544D339F
:1025200032205669727475616C20436F6D506F7202
:102530007400000010B50A46024903A000F07CF8C0
:10254000004810BD40060020303030303030303090
:102550003030314100000000F8B50D46044649888E
:10256000FF300A0AFF300230130000F021FC084956
:1025700005091649493E46490069237C02682AE05C
:10258000217C02264069002905D0C16A6846884737
:102590000146467040E0816AF8E7C9B20B0000F0DE
:1025A00007FC0604080F13171E2F0069227C4368DE
:1025B00002E00069227C836869461046984712E071
:1025C0000069227CC368F7E70069227C0369F3E7AE
:1025D0000069237C426969461846904703E0006918
:1025E000227C8369E8E7014616E0217C002907D1B7
:1025F0004069416B68468847F5E7217C002904D093
:1026000029462046FFF7FEFEF8BD4069016B68468B
:102610008847072201464270684600880028F3D0A8
:10262000EA88002AF0D0824200D902466846028039
:102630002046FFF70DFFF8BD70B5002300281CD021
:102640000446002502E06D1CEDB2641C2678002EC5
:10265000F9D16C00A41C1480CC5403225B1CCA5416
:1026600000245B1C06E0CA545B1CDAB28C54521C7A
:10267000D3B2401C0278002AF5D170BD10B50028F5
:1026800013D0C31DFF33FA335C69002C01D0002442
:102690005C61002900D01961FF210123FD310B5439
:1026A000027000F0C7F8002010BD022010BD10B568
:1026B000FF30FF3002300024006AFEF751F8002896
:1026C00006D0012801D0022801D0022400E0012414
:1026D000204610BD10B5FF30FF3002300024006AE4
:1026E000FDF78AFF002806D0012801D0022801D07A
:1026F000022400E00124204610BDFEB50446FF3050
:10270000E51DE130FF35FA3513460190002908D068
:1027100068694269002A49D00198007F032843D0A4
:1027200044E02646FF3681362046716F1430022978
:1027300034D1C26881680092914207D9891A8160B8
:102740008AB219462046FFF755FE13E0406811464D
:102750000746FDF7EBFC002913D10098874210D300
:10276000B06F87420DD2002211462046FFF742FE8D
:102770000020B06700231A461946204600F0C6F82C
:102780000CE06869C168002905D00198007F032822
:1027900001D1204688472046FFF74EFE28780128C1
:1027A00004D10020287001E0204690470020FEBDA3
:1027B00070B50546FF35E1352B46203316460446F5
:1027C000002907D058698269002A29D0287F032868
:1027D00024D025E0FF21F531E01D0959FD30032902
:1027E0001ED18268C1688A420BD9511A8160C068C3
:1027F000814200D301468AB231462046FFF7F2FDFE
:102800000EE058690169002904D0287F032801D10E
:10281000204688472046FFF729FE01E020469047E2
:10282000002070BDFF3010B5FF300230006AFDF7A8
:10283000F1FF10BD10B51E49C41DC861FF341D490C
:10284000FA341D4821620860022208208A6048602C
:102850000020C8608861C8610A6108620846FEF706
:102860006BFB002801D0FDF77FFD002218231146E5
:10287000206AFDF789FE582300228021206AFDF797
:1028800083FEC02300228121206AFDF77DFEFF2305
:10289000113300220121206AFDF776FEFF23013368
:1028A00000228221206AFDF76FFE002010BD00008B
:1028B000AC050020AC030020005C0040FF30CA09DA
:1028C000FF3049060230490E1C23006A594308189C
:1028D000002A01D0203001E0FF300130807A7047BB
:1028E00070B5FF301D46FF30023013460024006AE9
:1028F0002A46FDF799FF002806D0012801D00228BA
:1029000001D0022400E00124204670BD10B5FF3044
:10291000FF3002300024006AFEF7D8F8002806D005
:10292000012801D0022801D0022400E00124204621
:1029300010BD70B50022044640231146FFF7D0FFBA
:102940004025FF20113005512B46002280212046D2
:10295000FFF7C6FFFF200121FD3025620155E01D74
:10296000FF30FA308169002904D04069217942683A
:1029700020469047002070BDFF30E130417F017755
:102980000020704710B5FF21FD31095C032906D1F5
:10299000852189000958C969002900D0884700208D
:1029A00010BD01740020704710B5FF30FF300230B9
:1029B0000024006AFEF754FB002806D0012801D04D
:1029C000022801D0022400E00124204610BD70B589
:1029D00004464120C0002018054600F068F8214652
:1029E000FF3181310122084680304A67C2898A67F7
:1029F000007AC106C90E0AD001290DD0022910D0D3
:102A0000C109C901204600F011F8002070BD294617
:102A1000204600F0B6F8F8E72946204600F09DF978
:102A2000F3E72946204600F023F9EEE710B5FF3022
:102A3000FF3002300024006AFEF7E4F8002806D0D8
:102A4000012801D0022801D0022400E00124204600
:102A500010BD10B5FF30FF3002300024006AFEF7D1
:102A600020FB002806D0012801D0022801D0022432
:102A700000E00124204610BDFF30E130017F4177A6
:102A8000042101770020704710B5FF30FF3002307D
:102A90000024006AFEF700F9002806D0012801D0C2
:102AA000022801D0022400E00124204610BD0A784B
:102AB00002704A784270CB788A781B02D218428022
:102AC0004B790A791B02D21882808A79C979090266
:102AD0005118C180704702460020002904D0FF32FF
:102AE000FF320232516170470220704710B58522D3
:102AF000920012580224002A04D01268904700283D
:102B000000D10024204610BD70B50E468978194DBD
:102B100004462970012904D931462046FFF772FC8A
:102B200070BD2046FF30E130027F022A15D0032A13
:102B3000F2D1002917D0606888420AD0C1B220467D
:102B4000FFF748FC297861602046FFF7CFFF022895
:102B5000E2D02046FFF78AFC70BD0029F9D003229D
:102B600061600277F0E70222027720466160FFF79A
:102B700031FCEEE77000002010B5FFF76AFF00207F
:102B800010BDF8B500220092C61DFF364C781746DE
:102B9000FA3632460125203A230000F009F90A3CB2
:102BA000564150410906412B2841FFF7D5FC5DE015
:102BB00004468888002818D1C888002815D188784C
:102BC00017464606107F760E03280ED0BE77314694
:102BD0002046FFF7E9FE2046FFF748FC002E02D012
:102BE0000220387742E03D7740E0204618E0FFF7CA
:102BF0008BFF3BE0CB88012B12D1127F022A02D03F
:102C0000032A0DD104E0012201460831876013E058
:102C10000122011D10E0127F022A04D0032A02D0F3
:102C2000FFF7F0FB22E0C5607168002901D00321A5
:102C3000C160014602220C31FFF70AFC16E004468F
:102C40004888012812D1756009E00446107F0228E7
:102C500001D00328C9D14888012807D1776070695D
:102C60008268204690472046FFF700FC0098F8BD98
:102C7000F8B504460D462878E61D4006FF360027C5
:102C80000979800FFA36012809D06A783046203851
:102C9000002A38D0012A1ED0032A3DD106E07069EF
:102CA00029468268204690470020F8BD007F022810
:102CB00017D003282CD16888002806D1002904D019
:102CC000802902D02046FFF7B1FE7069294682684C
:102CD0002046904713E0007F022802D0032817D136
:102CE00004E0002918D080291AD115E0688800284E
:102CF00012D1480603D02046FFF7D9FCE5E720466D
:102D0000FFF7B4FB08E0007F022807D003280BD0B0
:102D100029462046FFF776FB3846F8BD4806FBD02B
:102D20002046FFF783FEF7E7C80904D04806400DA8
:102D30000519143504E04806400D0519FF35053521
:102D40002046FFF7BBFD002800D0012028600222AA
:102D500029462046FFF77CFBDEE770B50446FF30CE
:102D6000E130007F0D4603280FD1287901280CD8C7
:102D7000852080000059826820469047E888002816
:102D800006D12046FFF772FB02E02046FFF73AFB30
:102D9000002070BD70470000004870478C01002083
:102DA00010B50248FEF742F810BD0000AC03002049
:102DB00030B47446641E2578641CAB4200D21D46B4
:102DC000635D5B00E31830BC184702E008C8121FBF
:102DD00008C1002AFAD170477047002001E001C104
:102DE000121F002AFBD1704708B50027FDF780FBB2
:102DF000FFF743F958484269012149040A434261F7
:102E0000406908400090FEF7B9FEFEF7DBFEFEF7D2
:102E100097FDFEF7F1FE80215048FDF74FFB00289B
:102E200001D1FDF733FA4E4C4E4D00263220FDF70E
:102E30009CFA2078532845D16078542842D1A07A52
:102E4000462802D1E07A4E2803D0207A46281AD0AC
:102E500038E00C2144A0FDF769FA21796079090175
:102E60004018454A454980180870A179E079090160
:102E70004018434980180870217A607A0901401887
:102E8000801840491BE0607A49281BD10C213EA0E4
:102E9000FDF74CFAA178E07809014018364A3E491E
:102EA0008018087021796079090140183B49801821
:102EB0000870A179E0790901401839498018087033
:102EC000FDF7E4F900202654401CC0B21228FAD3C2
:102ED000072224490020FDF77CF92978B94232D035
:102EE0000A09304809073032090F0275303141753F
:102EF00069780A0909073032090F42743031817448
:102F0000A9780A0909073032090F82733031C17379
:102F100029790A0909073032090F82723031C172EA
:102F200069790A0909073032090F82713031C1719C
:102F3000A9790A0909073032090F82703031C1704E
:102F40001A21FDF7F3F92F7800202E54401CC0B24F
:102F50001028FAD36AE7000000100240000400487D
:102F6000640A0020CC050020C9E8D6C3C4EAD4C254
:102F7000C8D50D0A00000000D0FCFFFF640000204F
:102F80006500002066000020C9E8D6C3CAB1B7D6E4
:102F9000C3EB0D0A0000000067000020680000205D
:102FA0006900002000000020000000000000000078
:102FB0000102030406070809D82F000800000020BA
:102FC0008C0100007C010008B83000088C01002052
:102FD000FC0C0000DA2D0008201532303137C4EA2D
:102FE0003032D4C23235C8D532323A35363A250D70
:102FF0000A0D0A13A5241B08D5041AE10413092598
:103000001B0835041A850C1AB104170403090412AD
:1030100001140202021640830440572602010203F3
:103020000113ED021B08E9041AE504131103420819
:10303000F61702252330130A0632021A4033111CF8
:103040000902433F1125C03209041B01020B13057D
:10305000241610010524011009010424020205248C
:1030600006170107058203081C10090475199C1135
:103070001D07050102432C070581070938442A4032
:10308000072A8107112B0907440A2204440A16FF64
:1030900044132D22140897214C082D23FC1AD30C1D
:1030A0001A45041A6304C11A15281A09041A2104BE
:0830B0002AFD1C13127A000036
:04000005080000C12E
:00000001FF
